S016000043616C697065724465636F6465722E7372656398
S11300000EC028C03FC026C025C024C023C022C0C3
S113001021C020C020C01EC01DC00EC131C111248A
S11300201FBECFE5D2E0DEBFCDBF10E0A0E6B0E05A
S1130030E6E7F3E002C005900D92A036B107D9F7C8
S113004020E0A0E6B0E001C01D92AD38B207E1F7B0
S1130050A0D08FC1D5CF1F920F920FB60F9211244B
S11300608F939F938091600090916100019690938B
S11300706100809360009F918F910F900FBE0F904D
S11300801F9018951F920F920FB60F9211242F9361
S11300903F934F935F936F937F938F939F93EF93CC
S11300A0FF9396B38091620026B320936200892760
S11300B084FF48C0B49B46C0F8948091600090913E
S11300C061004597D0F180E090E020E030E061E00D
S11300D070E0B499FECFB39B09C0AB01082E02C0F7
S11300E0440F551F0A94E2F7242B352BB49BFECF03
S11300F001968031910569F780E090E040E050E09E
S1130100E1E0F0E0B499FECFB39B09C0BF01082E33
S113011002C0660F771F0A94E2F7462B572BB49B55
S1130120FECF01968C30910569F730938A002093B5
S1130130890050938C0040938B00109261001092C0
S113014060007894FF91EF919F918F917F916F91CF
S11301505F914F913F912F910F900FBE0F901F9081
S11301601895B99A86E127D0C498BC98C498C398C6
S1130170BB98C3988BB780628BBFAC9A82E08ABD70
S113018085E083BF8EE489BD89B7806189BF789497
S11301900895E7DF48D08823E9F332D080918900BD
S11301A01FD080918A001CD080918B0019D080913F
S11301B08C0016D0EFCF109275001092760010923A
S11301C06300109264008093880087B3856087BBC6
S11301D0C29AC09AB89888EA8DB980EF8EB908950A
S11301E0209164002F5F2F70909163002917E1F331
S11301F0E22FF0E0EB59FF4F8083209364000895D1
S113020090917600809175009817D1F380917500D4
S11302108F5F8F7080937500E0917500F0E0E9586E
S1130220FF4F80810895209176009091750081E0C0
S11302302913089580E008951F920F920FB60F922C
S113024011248F9310928700B89802C0B09902C00D
S1130250B299FCCFB09B0AC088EA8DB980EF8EB901
S11302608F910F900FBE0F901F90189588EF8DB946
S113027080EF8EB98F910F900FBE0F901F9018953D
S11302801F920F920FB60F9211248F939F93EF93A7
S1130290FF9380918700823009F458C020F18430A4
S11302A009F43FC008F460C08530A1F48091760061
S11302B08F5F8F7080937600E09176008FB1F0E0CD
S11302C0E958FF4F808384E0809387001FB8B89A71
S11302D08EE78EB9FF91EF919F918F910F900FBE92
S11302E00F901F901895882319F1813099F79091F8
S11302F0640080916300981721F1809163008F5FFF
S11303008F7080936300E0916300F0E0EB59FF4F3E
S113031080818FB982E080938700B89A80E78EB994
S1130320D9CF85E080938700B89880E78EB9D2CF83
S11303308FB1882399F08FB18695909188008917A1
S113034069F088EA8DB980E78EB9C4CF83E08093E1
S11303508700B8981FB88EE78EB9BCCF789BB3CF0F
S113036081E080938700B2CF8FB1882309F4BFCF97
S1090370E8CFF894FFCF72
S9030000FC
