S010000063616C69706572322E7372656302
S11300000EC01DC01CC01BC01AC019C018C017C028
S113001016C015C015C013C012C098C0B3C01124B7
S11300201FBECFE5D1E0DEBFCDBF20E0A0E6B0E04B
S113003001C01D92AC37B207E1F729D02EC1E0CF41
S11300401F920F920FB60F9211248F939F93AF9329
S1130050BF93F8948091600090916100A091620038
S1130060B09163000196A11DB11D8093600090932F
S11300706100A0936200B09363007894BF91AF9144
S11300809F918F910F900FBE0F901F901895CF9353
S1130090DF9300D000D0CDB7DEB77894B99AC19879
S11300A0C498BC98C498C398BB9884E12AD080E0D3
S11300B09CE3ACE1B6E489839A83AB83BC8380E0A0
S11300C035D08A8133D08B8131D08C812FD022E0FE
S11300D0B49B03C088B3822788BB80916000909151
S11300E06100A0916200B09163000196A11DB11D51
S11300F08093600090936100A0936200B0936300CA
S1130100E7CF10927600109277001092640010925C
S1130110650080937B0087B3856087BBC29AC09AD1
S1130120B89888EA8DB980EF8EB90895209165005A
S11301302F5F2F70909164002917E1F3E22FF0E014
S1130140EA59FF4F80832093650008951F920F9210
S11301500FB60F9211248F9310927A00B898B29B25
S113016002C0B09BFCCFB09903C088EF8DB902C028
S113017088EA8DB980EF8EB98F910F900FBE0F90E2
S11301801F9018951F920F920FB60F9211248F9300
S11301909F93EF93FF9380917A00823009F451C0CA
S11301A028F4882359F0813069F16EC0843009F451
S11301B050C000F1853009F453C066C08FB1882364
S11301C031F09FB1969580917B0098130EC0789B77
S11301D004C081E080937A0003C084E080937A00B5
S11301E01FB8B89A8EE78EB94FC088EA8DB980E7F8
S11301F08EB94AC08FB1882329F088EA8DB980E787
S11302008EB942C090916500809164009817A1F066
S1130210809164008F5F8F7080936400E09164002C
S1130220F0E0EA59FF4F80818FB982E080937A0031
S1130230B89A80E78EB928C088EA8DB980E78EB96C
S113024023C083E080937A00B8981FB88EE78EB9F4
S11302501BC085E080937A00B89880E78EB914C0FB
S1130260809177008F5F817080937700E0917700B1
S11302708FB1F0E0E858FF4F808384E080937A00E8
S11302801FB8B89A8EE78EB9FF91EF919F918F9125
S11102900F900FBE0F901F901895F894FFCF9B
S9030000FC
